{
  "_format": "hh-sol-artifact-1",
  "contractName": "Toadz",
  "sourceName": "contracts/Toadz.sol",
  "abi": [
    {
      "inputs": [],
      "stateMutability": "nonpayable",
      "type": "constructor"
    },
    {
      "anonymous": false,
      "inputs": [
        {
          "indexed": true,
          "internalType": "address",
          "name": "owner",
          "type": "address"
        },
        {
          "indexed": true,
          "internalType": "address",
          "name": "approved",
          "type": "address"
        },
        {
          "indexed": true,
          "internalType": "uint256",
          "name": "tokenId",
          "type": "uint256"
        }
      ],
      "name": "Approval",
      "type": "event"
    },
    {
      "anonymous": false,
      "inputs": [
        {
          "indexed": true,
          "internalType": "address",
          "name": "owner",
          "type": "address"
        },
        {
          "indexed": true,
          "internalType": "address",
          "name": "operator",
          "type": "address"
        },
        {
          "indexed": false,
          "internalType": "bool",
          "name": "approved",
          "type": "bool"
        }
      ],
      "name": "ApprovalForAll",
      "type": "event"
    },
    {
      "anonymous": false,
      "inputs": [
        {
          "indexed": true,
          "internalType": "address",
          "name": "previousOwner",
          "type": "address"
        },
        {
          "indexed": true,
          "internalType": "address",
          "name": "newOwner",
          "type": "address"
        }
      ],
      "name": "OwnershipTransferred",
      "type": "event"
    },
    {
      "anonymous": false,
      "inputs": [
        {
          "indexed": true,
          "internalType": "address",
          "name": "from",
          "type": "address"
        },
        {
          "indexed": true,
          "internalType": "address",
          "name": "to",
          "type": "address"
        },
        {
          "indexed": true,
          "internalType": "uint256",
          "name": "tokenId",
          "type": "uint256"
        }
      ],
      "name": "Transfer",
      "type": "event"
    },
    {
      "inputs": [
        {
          "internalType": "address",
          "name": "to",
          "type": "address"
        },
        {
          "internalType": "uint256",
          "name": "tokenId",
          "type": "uint256"
        }
      ],
      "name": "approve",
      "outputs": [],
      "stateMutability": "nonpayable",
      "type": "function"
    },
    {
      "inputs": [
        {
          "internalType": "address",
          "name": "owner",
          "type": "address"
        }
      ],
      "name": "balanceOf",
      "outputs": [
        {
          "internalType": "uint256",
          "name": "",
          "type": "uint256"
        }
      ],
      "stateMutability": "view",
      "type": "function"
    },
    {
      "inputs": [],
      "name": "baseURI",
      "outputs": [
        {
          "internalType": "string",
          "name": "",
          "type": "string"
        }
      ],
      "stateMutability": "view",
      "type": "function"
    },
    {
      "inputs": [],
      "name": "contractURI",
      "outputs": [
        {
          "internalType": "string",
          "name": "",
          "type": "string"
        }
      ],
      "stateMutability": "view",
      "type": "function"
    },
    {
      "inputs": [],
      "name": "devMintLocked",
      "outputs": [
        {
          "internalType": "bool",
          "name": "",
          "type": "bool"
        }
      ],
      "stateMutability": "view",
      "type": "function"
    },
    {
      "inputs": [],
      "name": "freezeMetadata",
      "outputs": [],
      "stateMutability": "nonpayable",
      "type": "function"
    },
    {
      "inputs": [
        {
          "internalType": "uint256",
          "name": "tokenId",
          "type": "uint256"
        }
      ],
      "name": "getApproved",
      "outputs": [
        {
          "internalType": "address",
          "name": "",
          "type": "address"
        }
      ],
      "stateMutability": "view",
      "type": "function"
    },
    {
      "inputs": [
        {
          "internalType": "address",
          "name": "owner",
          "type": "address"
        },
        {
          "internalType": "address",
          "name": "operator",
          "type": "address"
        }
      ],
      "name": "isApprovedForAll",
      "outputs": [
        {
          "internalType": "bool",
          "name": "",
          "type": "bool"
        }
      ],
      "stateMutability": "view",
      "type": "function"
    },
    {
      "inputs": [],
      "name": "lockDevMint",
      "outputs": [],
      "stateMutability": "nonpayable",
      "type": "function"
    },
    {
      "inputs": [],
      "name": "maxMintsPerTx",
      "outputs": [
        {
          "internalType": "uint256",
          "name": "",
          "type": "uint256"
        }
      ],
      "stateMutability": "view",
      "type": "function"
    },
    {
      "inputs": [],
      "name": "maxTokens",
      "outputs": [
        {
          "internalType": "uint256",
          "name": "",
          "type": "uint256"
        }
      ],
      "stateMutability": "view",
      "type": "function"
    },
    {
      "inputs": [],
      "name": "metaDataFrozen",
      "outputs": [
        {
          "internalType": "bool",
          "name": "",
          "type": "bool"
        }
      ],
      "stateMutability": "view",
      "type": "function"
    },
    {
      "inputs": [
        {
          "internalType": "uint256",
          "name": "quantity",
          "type": "uint256"
        }
      ],
      "name": "mint",
      "outputs": [],
      "stateMutability": "payable",
      "type": "function"
    },
    {
      "inputs": [
        {
          "internalType": "address[]",
          "name": "recipients",
          "type": "address[]"
        },
        {
          "internalType": "uint256[]",
          "name": "legendId",
          "type": "uint256[]"
        }
      ],
      "name": "mintLegendary",
      "outputs": [],
      "stateMutability": "nonpayable",
      "type": "function"
    },
    {
      "inputs": [],
      "name": "name",
      "outputs": [
        {
          "internalType": "string",
          "name": "",
          "type": "string"
        }
      ],
      "stateMutability": "view",
      "type": "function"
    },
    {
      "inputs": [],
      "name": "nextTokenId",
      "outputs": [
        {
          "internalType": "uint256",
          "name": "",
          "type": "uint256"
        }
      ],
      "stateMutability": "view",
      "type": "function"
    },
    {
      "inputs": [],
      "name": "owner",
      "outputs": [
        {
          "internalType": "address",
          "name": "",
          "type": "address"
        }
      ],
      "stateMutability": "view",
      "type": "function"
    },
    {
      "inputs": [
        {
          "internalType": "uint256",
          "name": "tokenId",
          "type": "uint256"
        }
      ],
      "name": "ownerOf",
      "outputs": [
        {
          "internalType": "address",
          "name": "",
          "type": "address"
        }
      ],
      "stateMutability": "view",
      "type": "function"
    },
    {
      "inputs": [],
      "name": "provenance",
      "outputs": [
        {
          "internalType": "string",
          "name": "",
          "type": "string"
        }
      ],
      "stateMutability": "view",
      "type": "function"
    },
    {
      "inputs": [],
      "name": "renounceOwnership",
      "outputs": [],
      "stateMutability": "nonpayable",
      "type": "function"
    },
    {
      "inputs": [
        {
          "internalType": "address",
          "name": "from",
          "type": "address"
        },
        {
          "internalType": "address",
          "name": "to",
          "type": "address"
        },
        {
          "internalType": "uint256",
          "name": "tokenId",
          "type": "uint256"
        }
      ],
      "name": "safeTransferFrom",
      "outputs": [],
      "stateMutability": "nonpayable",
      "type": "function"
    },
    {
      "inputs": [
        {
          "internalType": "address",
          "name": "from",
          "type": "address"
        },
        {
          "internalType": "address",
          "name": "to",
          "type": "address"
        },
        {
          "internalType": "uint256",
          "name": "tokenId",
          "type": "uint256"
        },
        {
          "internalType": "bytes",
          "name": "_data",
          "type": "bytes"
        }
      ],
      "name": "safeTransferFrom",
      "outputs": [],
      "stateMutability": "nonpayable",
      "type": "function"
    },
    {
      "inputs": [
        {
          "internalType": "address",
          "name": "operator",
          "type": "address"
        },
        {
          "internalType": "bool",
          "name": "approved",
          "type": "bool"
        }
      ],
      "name": "setApprovalForAll",
      "outputs": [],
      "stateMutability": "nonpayable",
      "type": "function"
    },
    {
      "inputs": [
        {
          "internalType": "string",
          "name": "_baseURI",
          "type": "string"
        }
      ],
      "name": "setBaseURI",
      "outputs": [],
      "stateMutability": "nonpayable",
      "type": "function"
    },
    {
      "inputs": [
        {
          "internalType": "string",
          "name": "contractURI_",
          "type": "string"
        }
      ],
      "name": "setContractURI",
      "outputs": [],
      "stateMutability": "nonpayable",
      "type": "function"
    },
    {
      "inputs": [
        {
          "internalType": "string",
          "name": "_provenance",
          "type": "string"
        }
      ],
      "name": "setProvenance",
      "outputs": [],
      "stateMutability": "nonpayable",
      "type": "function"
    },
    {
      "inputs": [
        {
          "internalType": "uint256",
          "name": "_startingBlock",
          "type": "uint256"
        }
      ],
      "name": "setStartingBlock",
      "outputs": [],
      "stateMutability": "nonpayable",
      "type": "function"
    },
    {
      "inputs": [],
      "name": "startingBlock",
      "outputs": [
        {
          "internalType": "uint256",
          "name": "",
          "type": "uint256"
        }
      ],
      "stateMutability": "view",
      "type": "function"
    },
    {
      "inputs": [
        {
          "internalType": "bytes4",
          "name": "interfaceId",
          "type": "bytes4"
        }
      ],
      "name": "supportsInterface",
      "outputs": [
        {
          "internalType": "bool",
          "name": "",
          "type": "bool"
        }
      ],
      "stateMutability": "view",
      "type": "function"
    },
    {
      "inputs": [],
      "name": "symbol",
      "outputs": [
        {
          "internalType": "string",
          "name": "",
          "type": "string"
        }
      ],
      "stateMutability": "view",
      "type": "function"
    },
    {
      "inputs": [
        {
          "internalType": "uint256",
          "name": "",
          "type": "uint256"
        }
      ],
      "name": "teamMembers",
      "outputs": [
        {
          "internalType": "address payable",
          "name": "",
          "type": "address"
        }
      ],
      "stateMutability": "view",
      "type": "function"
    },
    {
      "inputs": [],
      "name": "toadzMultiSig",
      "outputs": [
        {
          "internalType": "address payable",
          "name": "",
          "type": "address"
        }
      ],
      "stateMutability": "view",
      "type": "function"
    },
    {
      "inputs": [
        {
          "internalType": "uint256",
          "name": "index",
          "type": "uint256"
        }
      ],
      "name": "tokenByIndex",
      "outputs": [
        {
          "internalType": "uint256",
          "name": "",
          "type": "uint256"
        }
      ],
      "stateMutability": "view",
      "type": "function"
    },
    {
      "inputs": [
        {
          "internalType": "address",
          "name": "owner",
          "type": "address"
        },
        {
          "internalType": "uint256",
          "name": "index",
          "type": "uint256"
        }
      ],
      "name": "tokenOfOwnerByIndex",
      "outputs": [
        {
          "internalType": "uint256",
          "name": "",
          "type": "uint256"
        }
      ],
      "stateMutability": "view",
      "type": "function"
    },
    {
      "inputs": [],
      "name": "tokenPrice",
      "outputs": [
        {
          "internalType": "uint256",
          "name": "",
          "type": "uint256"
        }
      ],
      "stateMutability": "view",
      "type": "function"
    },
    {
      "inputs": [
        {
          "internalType": "uint256",
          "name": "tokenId",
          "type": "uint256"
        }
      ],
      "name": "tokenURI",
      "outputs": [
        {
          "internalType": "string",
          "name": "",
          "type": "string"
        }
      ],
      "stateMutability": "view",
      "type": "function"
    },
    {
      "inputs": [],
      "name": "totalSupply",
      "outputs": [
        {
          "internalType": "uint256",
          "name": "",
          "type": "uint256"
        }
      ],
      "stateMutability": "view",
      "type": "function"
    },
    {
      "inputs": [
        {
          "internalType": "address",
          "name": "from",
          "type": "address"
        },
        {
          "internalType": "address",
          "name": "to",
          "type": "address"
        },
        {
          "internalType": "uint256",
          "name": "tokenId",
          "type": "uint256"
        }
      ],
      "name": "transferFrom",
      "outputs": [],
      "stateMutability": "nonpayable",
      "type": "function"
    },
    {
      "inputs": [
        {
          "internalType": "address",
          "name": "newOwner",
          "type": "address"
        }
      ],
      "name": "transferOwnership",
      "outputs": [],
      "stateMutability": "nonpayable",
      "type": "function"
    },
    {
      "inputs": [],
      "name": "withdraw",
      "outputs": [],
      "stateMutability": "nonpayable",
      "type": "function"
    }
  ],
  "bytecode": "0x66f5232269808000600b55633b9ac9ff600c55600f805460ff191690556001601055600a60808181526101e06040529060a061014080368337505081516200004f9260119250602001906200055a565b506013805460ff60a01b191690553480156200006a57600080fd5b50604080518082018252600981526821b93cb83a37b0b23d60b91b602080830191909152825180840190935260058352642a27a0a22d60d91b9083015290620000ba6301ffc9a760e01b620004d1565b8151620000cf906006906020850190620005c4565b508051620000e5906007906020840190620005c4565b50620000f86380ac58cd60e01b620004d1565b6200010a635b5e139f60e01b620004d1565b6200011c63780e9d6360e01b620004d1565b50600090506200012b62000556565b600a80546001600160a01b0319166001600160a01b038316908117909155604051919250906000907f8be0079c531659141344cd1fd0a4f28419497f9722a3daafe3b4186f6b6457e0908290a350737f99aa832a9caec3a5183570b045fc1b2905cb2c60116000815481106200019d57fe5b9060005260206000200160006101000a8154816001600160a01b0302191690836001600160a01b0316021790555073cdad690cf10889aaa9bd61425d7d5feb99d30e586011600181548110620001ef57fe5b9060005260206000200160006101000a8154816001600160a01b0302191690836001600160a01b031602179055507352d869dfbd4b867d512c6d281bd6a37613b2741660116002815481106200024157fe5b9060005260206000200160006101000a8154816001600160a01b0302191690836001600160a01b0316021790555073c67f215624547d75302ca0132877065e82789cd060116003815481106200029357fe5b9060005260206000200160006101000a8154816001600160a01b0302191690836001600160a01b031602179055507389c639061ab5d347fc38a546bb5c5277e235221a6011600481548110620002e557fe5b9060005260206000200160006101000a8154816001600160a01b0302191690836001600160a01b03160217905550735845d8c85a7950a00a9e63fdbf99115d9cfc183860116005815481106200033757fe5b9060005260206000200160006101000a8154816001600160a01b0302191690836001600160a01b03160217905550730992ba6b7ea5cb973ed7822c263a94571cf258e560116006815481106200038957fe5b9060005260206000200160006101000a8154816001600160a01b0302191690836001600160a01b0316021790555073108a60f15a49f8dc8386b481429aa4fd700d923e6011600781548110620003db57fe5b9060005260206000200160006101000a8154816001600160a01b0302191690836001600160a01b0316021790555073f1efa1abf71af01fae25623daa98c01010c0287460116008815481106200042d57fe5b9060005260206000200160006101000a8154816001600160a01b0302191690836001600160a01b0316021790555073a8e004592a93e867a6de8fc1fb1f558a01750dc760116009815481106200047f57fe5b600091825260209091200180546001600160a01b03929092166001600160a01b0319928316179055601380549091167336814a6e322903e50965f5baec2f52ed0562578d17905560046012556200067d565b6001600160e01b0319808216141562000531576040805162461bcd60e51b815260206004820152601c60248201527f4552433136353a20696e76616c696420696e7465726661636520696400000000604482015290519081900360640190fd5b6001600160e01b0319166000908152602081905260409020805460ff19166001179055565b3390565b828054828255906000526020600020908101928215620005b2579160200282015b82811115620005b257825182546001600160a01b0319166001600160a01b039091161782556020909201916001909101906200057b565b50620005c092915062000645565b5090565b828054600181600116156101000203166002900490600052602060002090601f016020900481019282601f106200060757805160ff191683800117855562000637565b8280016001018555821562000637579182015b82811115620006375782518255916020019190600101906200061a565b50620005c092915062000666565b5b80821115620005c05780546001600160a01b031916815560010162000646565b5b80821115620005c0576000815560010162000667565b612f93806200068d6000396000f3fe6080604052600436106102bb5760003560e01c80638da5cb5b1161016e578063d91c98d3116100cb578063e985e9c51161007f578063f1f769a311610064578063f1f769a314610b66578063f2fde38b14610b7b578063ffe630b514610bae576102bb565b8063e985e9c514610b01578063ec17b20e14610b3c576102bb565b8063e75f7ddb116100b0578063e75f7ddb14610aad578063e831574214610ad7578063e8a3d48514610aec576102bb565b8063d91c98d314610a83578063dc30158b14610a98576102bb565b8063a22cb46511610122578063b88d4fde11610107578063b88d4fde14610971578063c87b56dd14610a44578063d111515d14610a6e576102bb565b8063a22cb46514610921578063a23545821461095c576102bb565b806395d89b411161015357806395d89b41146108da5780639a7c8e69146108ef578063a0712d6814610904576102bb565b80638da5cb5b14610812578063938e3d7b14610827576102bb565b806342842e0e1161021c5780636c0360eb116101d0578063715018a6116101b5578063715018a6146107d357806375794a3c146107e85780637ff9b596146107fd576102bb565b80636c0360eb1461078b57806370a08231146107a0576102bb565b806355f804b31161020157806355f804b31461057a5780636352211e1461062d57806365f1a43314610657576102bb565b806342842e0e1461050d5780634f6ccce714610550576102bb565b80630f7309e81161027357806323b872dd1161025857806323b872dd1461047c5780632f745c59146104bf5780633ccfd60b146104f8576102bb565b80630f7309e81461044057806318160ddd14610455576102bb565b806306fdde03116102a457806306fdde0314610337578063081812fc146103c1578063095ea7b314610407576102bb565b806301ffc9a7146102c057806306fd513314610320575b600080fd5b3480156102cc57600080fd5b5061030c600480360360208110156102e357600080fd5b50357fffffffff0000000000000000000000000000000000000000000000000000000016610c61565b604080519115158252519081900360200190f35b34801561032c57600080fd5b50610335610c9c565b005b34801561034357600080fd5b5061034c610d51565b6040805160208082528351818301528351919283929083019185019080838360005b8381101561038657818101518382015260200161036e565b50505050905090810190601f1680156103b35780820380516001836020036101000a031916815260200191505b509250505060405180910390f35b3480156103cd57600080fd5b506103eb600480360360208110156103e457600080fd5b5035610de7565b604080516001600160a01b039092168252519081900360200190f35b34801561041357600080fd5b506103356004803603604081101561042a57600080fd5b506001600160a01b038135169060200135610e49565b34801561044c57600080fd5b5061034c610f24565b34801561046157600080fd5b5061046a610fb2565b60408051918252519081900360200190f35b34801561048857600080fd5b506103356004803603606081101561049f57600080fd5b506001600160a01b03813581169160208101359091169060400135610fc3565b3480156104cb57600080fd5b5061046a600480360360408110156104e257600080fd5b506001600160a01b03813516906020013561101a565b34801561050457600080fd5b50610335611045565b34801561051957600080fd5b506103356004803603606081101561053057600080fd5b506001600160a01b038135811691602081013590911690604001356110ea565b34801561055c57600080fd5b5061046a6004803603602081101561057357600080fd5b5035611105565b34801561058657600080fd5b506103356004803603602081101561059d57600080fd5b8101906020810181356401000000008111156105b857600080fd5b8201836020820111156105ca57600080fd5b803590602001918460018302840111640100000000831117156105ec57600080fd5b91908080601f01602080910402602001604051908101604052809392919081815260200183838082843760009201919091525092955061111b945050505050565b34801561063957600080fd5b506103eb6004803603602081101561065057600080fd5b50356111dd565b34801561066357600080fd5b506103356004803603604081101561067a57600080fd5b81019060208101813564010000000081111561069557600080fd5b8201836020820111156106a757600080fd5b803590602001918460208302840111640100000000831117156106c957600080fd5b919080806020026020016040519081016040528093929190818152602001838360200280828437600092019190915250929594936020810193503591505064010000000081111561071957600080fd5b82018360208201111561072b57600080fd5b8035906020019184602083028401116401000000008311171561074d57600080fd5b919080806020026020016040519081016040528093929190818152602001838360200280828437600092019190915250929550611205945050505050565b34801561079757600080fd5b5061034c611332565b3480156107ac57600080fd5b5061046a600480360360208110156107c357600080fd5b50356001600160a01b0316611393565b3480156107df57600080fd5b506103356113fb565b3480156107f457600080fd5b5061046a6114c6565b34801561080957600080fd5b5061046a6114cc565b34801561081e57600080fd5b506103eb6114d2565b34801561083357600080fd5b506103356004803603602081101561084a57600080fd5b81019060208101813564010000000081111561086557600080fd5b82018360208201111561087757600080fd5b8035906020019184600183028401116401000000008311171561089957600080fd5b91908080601f0160208091040260200160405190810160405280939291908181526020018383808284376000920191909152509295506114e1945050505050565b3480156108e657600080fd5b5061034c61156c565b3480156108fb57600080fd5b5061030c6115cd565b6103356004803603602081101561091a57600080fd5b50356115ee565b34801561092d57600080fd5b506103356004803603604081101561094457600080fd5b506001600160a01b038135169060200135151561174d565b34801561096857600080fd5b5061030c611852565b34801561097d57600080fd5b506103356004803603608081101561099457600080fd5b6001600160a01b038235811692602081013590911691604082013591908101906080810160608201356401000000008111156109cf57600080fd5b8201836020820111156109e157600080fd5b80359060200191846001830284011164010000000083111715610a0357600080fd5b91908080601f01602080910402602001604051908101604052809392919081815260200183838082843760009201919091525092955061185b945050505050565b348015610a5057600080fd5b5061034c60048036036020811015610a6757600080fd5b50356118b9565b348015610a7a57600080fd5b50610335611b3c565b348015610a8f57600080fd5b5061046a611bbf565b348015610aa457600080fd5b5061046a611bc5565b348015610ab957600080fd5b506103eb60048036036020811015610ad057600080fd5b5035611bca565b348015610ae357600080fd5b5061046a611bf1565b348015610af857600080fd5b5061034c611bf6565b348015610b0d57600080fd5b5061030c60048036036040811015610b2457600080fd5b506001600160a01b0381358116916020013516611c57565b348015610b4857600080fd5b5061033560048036036020811015610b5f57600080fd5b5035611c85565b348015610b7257600080fd5b506103eb611cfe565b348015610b8757600080fd5b5061033560048036036020811015610b9e57600080fd5b50356001600160a01b0316611d0d565b348015610bba57600080fd5b5061033560048036036020811015610bd157600080fd5b810190602081018135640100000000811115610bec57600080fd5b820183602082011115610bfe57600080fd5b80359060200191846001830284011164010000000083111715610c2057600080fd5b91908080601f016020809104026020016040519081016040528093929190818152602001838380828437600092019190915250929550611e2f945050505050565b7fffffffff00000000000000000000000000000000000000000000000000000000811660009081526020819052604090205460ff165b919050565b610ca4611f1e565b6001600160a01b0316610cb56114d2565b6001600160a01b031614610d10576040805162461bcd60e51b815260206004820181905260248201527f4f776e61626c653a2063616c6c6572206973206e6f7420746865206f776e6572604482015290519081900360640190fd5b601380547fffffffffffffffffffffff00ffffffffffffffffffffffffffffffffffffffff1674010000000000000000000000000000000000000000179055565b60068054604080516020601f6002600019610100600188161502019095169490940493840181900481028201810190925282815260609390929091830182828015610ddd5780601f10610db257610100808354040283529160200191610ddd565b820191906000526020600020905b815481529060010190602001808311610dc057829003601f168201915b5050505050905090565b6000610df282611f22565b610e2d5760405162461bcd60e51b815260040180806020018281038252602c815260200180612e59602c913960400191505060405180910390fd5b506000908152600460205260409020546001600160a01b031690565b6000610e54826111dd565b9050806001600160a01b0316836001600160a01b03161415610ea75760405162461bcd60e51b8152600401808060200182810382526021815260200180612f0c6021913960400191505060405180910390fd5b806001600160a01b0316610eb9611f1e565b6001600160a01b03161480610eda5750610eda81610ed5611f1e565b611c57565b610f155760405162461bcd60e51b8152600401808060200182810382526038815260200180612d8a6038913960400191505060405180910390fd5b610f1f8383611f2f565b505050565b600e805460408051602060026001851615610100026000190190941693909304601f81018490048402820184019092528181529291830182828015610faa5780601f10610f7f57610100808354040283529160200191610faa565b820191906000526020600020905b815481529060010190602001808311610f8d57829003601f168201915b505050505081565b6000610fbe6002611faa565b905090565b610fd4610fce611f1e565b82611fb5565b61100f5760405162461bcd60e51b8152600401808060200182810382526031815260200180612f2d6031913960400191505060405180910390fd5b610f1f838383612059565b6001600160a01b038216600090815260016020526040812061103c90836121a5565b90505b92915050565b6000606460125447028161105557fe5b6013546040519290910492506001600160a01b03169082156108fc029083906000818181858888f150506011546000935091504790508161109257fe5b04905060005b601154811015610f1f57601181815481106110af57fe5b60009182526020822001546040516001600160a01b039091169184156108fc02918591818181858888f1505060019093019250611098915050565b610f1f8383836040518060200160405280600081525061185b565b6000806111136002846121b1565b509392505050565b611123611f1e565b6001600160a01b03166111346114d2565b6001600160a01b03161461118f576040805162461bcd60e51b815260206004820181905260248201527f4f776e61626c653a2063616c6c6572206973206e6f7420746865206f776e6572604482015290519081900360640190fd5b600f5460ff16156111d15760405162461bcd60e51b8152600401808060200182810382526022815260200180612dc26022913960400191505060405180910390fd5b6111da816121cd565b50565b600061103f82604051806060016040528060298152602001612e0e60299139600291906121e0565b61120d611f1e565b6001600160a01b031661121e6114d2565b6001600160a01b031614611279576040805162461bcd60e51b815260206004820181905260248201527f4f776e61626c653a2063616c6c6572206973206e6f7420746865206f776e6572604482015290519081900360640190fd5b60135474010000000000000000000000000000000000000000900460ff16156112e9576040805162461bcd60e51b815260206004820152601b60248201527f446576204d696e74205065726d616e656e746c79204c6f636b65640000000000604482015290519081900360640190fd5b60005b8251811015610f1f5761132a83828151811061130457fe5b602002602001015183838151811061131857fe5b6020026020010151620f4240026121f7565b6001016112ec565b60098054604080516020601f6002600019610100600188161502019095169490940493840181900481028201810190925282815260609390929091830182828015610ddd5780601f10610db257610100808354040283529160200191610ddd565b60006001600160a01b0382166113da5760405162461bcd60e51b815260040180806020018281038252602a815260200180612de4602a913960400191505060405180910390fd5b6001600160a01b038216600090815260016020526040902061103f90611faa565b611403611f1e565b6001600160a01b03166114146114d2565b6001600160a01b03161461146f576040805162461bcd60e51b815260206004820181905260248201527f4f776e61626c653a2063616c6c6572206973206e6f7420746865206f776e6572604482015290519081900360640190fd5b600a546040516000916001600160a01b0316907f8be0079c531659141344cd1fd0a4f28419497f9722a3daafe3b4186f6b6457e0908390a3600a805473ffffffffffffffffffffffffffffffffffffffff19169055565b60105481565b600b5481565b600a546001600160a01b031690565b6114e9611f1e565b6001600160a01b03166114fa6114d2565b6001600160a01b031614611555576040805162461bcd60e51b815260206004820181905260248201527f4f776e61626c653a2063616c6c6572206973206e6f7420746865206f776e6572604482015290519081900360640190fd5b805161156890600d906020840190612c06565b5050565b60078054604080516020601f6002600019610100600188161502019095169490940493840181900481028201810190925282815260609390929091830182828015610ddd5780601f10610db257610100808354040283529160200191610ddd565b60135474010000000000000000000000000000000000000000900460ff1681565b600c54431015611645576040805162461bcd60e51b815260206004820152601860248201527f53616c65206861736e2774207374617274656420796574210000000000000000604482015290519081900360640190fd5b60148111156116855760405162461bcd60e51b815260040180806020018281038252602f815260200180612edd602f913960400191505060405180910390fd5b6045816001601054030111156116cc5760405162461bcd60e51b8152600401808060200182810382526026815260200180612cee6026913960400191505060405180910390fd5b80600b54023414611724576040805162461bcd60e51b815260206004820152601b60248201527f57726f6e6720616d6f756e74206f662065746865722073656e74210000000000604482015290519081900360640190fd5b60005b818110156115685760108054600181019091556117459033906121f7565b600101611727565b611755611f1e565b6001600160a01b0316826001600160a01b031614156117bb576040805162461bcd60e51b815260206004820152601960248201527f4552433732313a20617070726f766520746f2063616c6c657200000000000000604482015290519081900360640190fd5b80600560006117c8611f1e565b6001600160a01b03908116825260208083019390935260409182016000908120918716808252919093529120805460ff19169215159290921790915561180c611f1e565b6001600160a01b03167f17307eab39ab6107e8899845ad3d59bd9653f200f220920489ca2b5937696c318360405180821515815260200191505060405180910390a35050565b600f5460ff1681565b61186c611866611f1e565b83611fb5565b6118a75760405162461bcd60e51b8152600401808060200182810382526031815260200180612f2d6031913960400191505060405180910390fd5b6118b384848484612211565b50505050565b60606118c482611f22565b6118ff5760405162461bcd60e51b815260040180806020018281038252602f815260200180612eae602f913960400191505060405180910390fd5b60008281526008602090815260409182902080548351601f60026000196101006001861615020190931692909204918201849004840281018401909452808452606093928301828280156119945780601f1061196957610100808354040283529160200191611994565b820191906000526020600020905b81548152906001019060200180831161197757829003601f168201915b5050505050905060606119a5611332565b90508051600014156119b957509050610c97565b815115611a7a5780826040516020018083805190602001908083835b602083106119f45780518252601f1990920191602091820191016119d5565b51815160209384036101000a600019018019909216911617905285519190930192850191508083835b60208310611a3c5780518252601f199092019160209182019101611a1d565b6001836020036101000a0380198251168184511680821785525050505050509050019250505060405160208183030381529060405292505050610c97565b80611a8485612263565b6040516020018083805190602001908083835b60208310611ab65780518252601f199092019160209182019101611a97565b51815160209384036101000a600019018019909216911617905285519190930192850191508083835b60208310611afe5780518252601f199092019160209182019101611adf565b6001836020036101000a0380198251168184511680821785525050505050509050019250505060405160208183030381529060405292505050919050565b611b44611f1e565b6001600160a01b0316611b556114d2565b6001600160a01b031614611bb0576040805162461bcd60e51b815260206004820181905260248201527f4f776e61626c653a2063616c6c6572206973206e6f7420746865206f776e6572604482015290519081900360640190fd5b600f805460ff19166001179055565b600c5481565b601481565b60118181548110611bd757fe5b6000918252602090912001546001600160a01b0316905081565b604581565b600d8054604080516020601f6002600019610100600188161502019095169490940493840181900481028201810190925282815260609390929091830182828015610ddd5780601f10610db257610100808354040283529160200191610ddd565b6001600160a01b03918216600090815260056020908152604080832093909416825291909152205460ff1690565b611c8d611f1e565b6001600160a01b0316611c9e6114d2565b6001600160a01b031614611cf9576040805162461bcd60e51b815260206004820181905260248201527f4f776e61626c653a2063616c6c6572206973206e6f7420746865206f776e6572604482015290519081900360640190fd5b600c55565b6013546001600160a01b031681565b611d15611f1e565b6001600160a01b0316611d266114d2565b6001600160a01b031614611d81576040805162461bcd60e51b815260206004820181905260248201527f4f776e61626c653a2063616c6c6572206973206e6f7420746865206f776e6572604482015290519081900360640190fd5b6001600160a01b038116611dc65760405162461bcd60e51b8152600401808060200182810382526026815260200180612d146026913960400191505060405180910390fd5b600a546040516001600160a01b038084169216907f8be0079c531659141344cd1fd0a4f28419497f9722a3daafe3b4186f6b6457e090600090a3600a805473ffffffffffffffffffffffffffffffffffffffff19166001600160a01b0392909216919091179055565b611e37611f1e565b6001600160a01b0316611e486114d2565b6001600160a01b031614611ea3576040805162461bcd60e51b815260206004820181905260248201527f4f776e61626c653a2063616c6c6572206973206e6f7420746865206f776e6572604482015290519081900360640190fd5b600e546002600019610100600184161502019091160415611f0b576040805162461bcd60e51b815260206004820152601760248201527f50726f76656e616e636520616c72656164792073657421000000000000000000604482015290519081900360640190fd5b805161156890600e906020840190612c06565b3390565b600061103f600283612372565b6000818152600460205260409020805473ffffffffffffffffffffffffffffffffffffffff19166001600160a01b0384169081179091558190611f71826111dd565b6001600160a01b03167f8c5be1e5ebec7d5bd14f71427d1e84f3dd0314c0f7b2291e5b200ac8c7c3b92560405160405180910390a45050565b600061103f8261237e565b6000611fc082611f22565b611ffb5760405162461bcd60e51b815260040180806020018281038252602c815260200180612d5e602c913960400191505060405180910390fd5b6000612006836111dd565b9050806001600160a01b0316846001600160a01b031614806120415750836001600160a01b031661203684610de7565b6001600160a01b0316145b8061205157506120518185611c57565b949350505050565b826001600160a01b031661206c826111dd565b6001600160a01b0316146120b15760405162461bcd60e51b8152600401808060200182810382526029815260200180612e856029913960400191505060405180910390fd5b6001600160a01b0382166120f65760405162461bcd60e51b8152600401808060200182810382526024815260200180612d3a6024913960400191505060405180910390fd5b612101838383610f1f565b61210c600082611f2f565b6001600160a01b038316600090815260016020526040902061212e9082612382565b506001600160a01b0382166000908152600160205260409020612151908261238e565b5061215e6002828461239a565b5080826001600160a01b0316846001600160a01b03167fddf252ad1be2c89b69c2b068fc378daa952ba7f163c4a11628f55a4df523b3ef60405160405180910390a4505050565b600061103c83836123b0565b60008080806121c08686612414565b9097909650945050505050565b8051611568906009906020840190612c06565b60006121ed84848461248f565b90505b9392505050565b611568828260405180602001604052806000815250612559565b61221c848484612059565b612228848484846125ab565b6118b35760405162461bcd60e51b8152600401808060200182810382526032815260200180612cbc6032913960400191505060405180910390fd5b6060816122a4575060408051808201909152600181527f30000000000000000000000000000000000000000000000000000000000000006020820152610c97565b8160005b81156122bc57600101600a820491506122a8565b60608167ffffffffffffffff811180156122d557600080fd5b506040519080825280601f01601f191660200182016040528015612300576020820181803683370190505b50859350905060001982015b831561236957600a840660300160f81b8282806001900393508151811061232f57fe5b60200101907effffffffffffffffffffffffffffffffffffffffffffffffffffffffffffff1916908160001a905350600a8404935061230c565b50949350505050565b600061103c8383612787565b5490565b600061103c838361279f565b600061103c8383612865565b60006121ed84846001600160a01b0385166128af565b815460009082106123f25760405162461bcd60e51b8152600401808060200182810382526022815260200180612c9a6022913960400191505060405180910390fd5b82600001828154811061240157fe5b9060005260206000200154905092915050565b8154600090819083106124585760405162461bcd60e51b8152600401808060200182810382526022815260200180612e376022913960400191505060405180910390fd5b600084600001848154811061246957fe5b906000526020600020906002020190508060000154816001015492509250509250929050565b6000828152600184016020526040812054828161252a5760405162461bcd60e51b81526004018080602001828103825283818151815260200191508051906020019080838360005b838110156124ef5781810151838201526020016124d7565b50505050905090810190601f16801561251c5780820380516001836020036101000a031916815260200191505b509250505060405180910390fd5b5084600001600182038154811061253d57fe5b9060005260206000209060020201600101549150509392505050565b6125638383612946565b61257060008484846125ab565b610f1f5760405162461bcd60e51b8152600401808060200182810382526032815260200180612cbc6032913960400191505060405180910390fd5b60006125bf846001600160a01b0316612a74565b6125cb57506001612051565b606061271c7f150b7a02000000000000000000000000000000000000000000000000000000006125f9611f1e565b88878760405160240180856001600160a01b03168152602001846001600160a01b0316815260200183815260200180602001828103825283818151815260200191508051906020019080838360005b83811015612660578181015183820152602001612648565b50505050905090810190601f16801561268d5780820380516001836020036101000a031916815260200191505b5095505050505050604051602081830303815290604052907bffffffffffffffffffffffffffffffffffffffffffffffffffffffff19166020820180517bffffffffffffffffffffffffffffffffffffffffffffffffffffffff8381831617835250505050604051806060016040528060328152602001612cbc603291396001600160a01b0388169190612a7a565b9050600081806020019051602081101561273557600080fd5b50517fffffffff00000000000000000000000000000000000000000000000000000000167f150b7a02000000000000000000000000000000000000000000000000000000001492505050949350505050565b60009081526001919091016020526040902054151590565b6000818152600183016020526040812054801561285b57835460001980830191908101906000908790839081106127d257fe5b90600052602060002001549050808760000184815481106127ef57fe5b60009182526020808320909101929092558281526001898101909252604090209084019055865487908061281f57fe5b6001900381819060005260206000200160009055905586600101600087815260200190815260200160002060009055600194505050505061103f565b600091505061103f565b60006128718383612787565b6128a75750815460018181018455600084815260208082209093018490558454848252828601909352604090209190915561103f565b50600061103f565b6000828152600184016020526040812054806129145750506040805180820182528381526020808201848152865460018181018955600089815284812095516002909302909501918255915190820155865486845281880190925292909120556121f0565b8285600001600183038154811061292757fe5b90600052602060002090600202016001018190555060009150506121f0565b6001600160a01b0382166129a1576040805162461bcd60e51b815260206004820181905260248201527f4552433732313a206d696e7420746f20746865207a65726f2061646472657373604482015290519081900360640190fd5b6129aa81611f22565b156129fc576040805162461bcd60e51b815260206004820152601c60248201527f4552433732313a20746f6b656e20616c7265616479206d696e74656400000000604482015290519081900360640190fd5b612a0860008383610f1f565b6001600160a01b0382166000908152600160205260409020612a2a908261238e565b50612a376002828461239a565b5060405181906001600160a01b038416906000907fddf252ad1be2c89b69c2b068fc378daa952ba7f163c4a11628f55a4df523b3ef908290a45050565b3b151590565b60606121ed848460008585612a8e85612a74565b612adf576040805162461bcd60e51b815260206004820152601d60248201527f416464726573733a2063616c6c20746f206e6f6e2d636f6e7472616374000000604482015290519081900360640190fd5b60006060866001600160a01b031685876040518082805190602001908083835b60208310612b1e5780518252601f199092019160209182019101612aff565b6001836020036101000a03801982511681845116808217855250505050505090500191505060006040518083038185875af1925050503d8060008114612b80576040519150601f19603f3d011682016040523d82523d6000602084013e612b85565b606091505b5091509150612b95828286612ba0565b979650505050505050565b60608315612baf5750816121f0565b825115612bbf5782518084602001fd5b60405162461bcd60e51b81526020600482018181528451602484015284518593919283926044019190850190808383600083156124ef5781810151838201526020016124d7565b828054600181600116156101000203166002900490600052602060002090601f016020900481019282601f10612c4757805160ff1916838001178555612c74565b82800160010185558215612c74579182015b82811115612c74578251825591602001919060010190612c59565b50612c80929150612c84565b5090565b5b80821115612c805760008155600101612c8556fe456e756d657261626c655365743a20696e646578206f7574206f6620626f756e64734552433732313a207472616e7366657220746f206e6f6e20455243373231526563656976657220696d706c656d656e7465724d696e74696e672074686973206d616e7920776f756c642065786365656420737570706c79214f776e61626c653a206e6577206f776e657220697320746865207a65726f20616464726573734552433732313a207472616e7366657220746f20746865207a65726f20616464726573734552433732313a206f70657261746f7220717565727920666f72206e6f6e6578697374656e7420746f6b656e4552433732313a20617070726f76652063616c6c6572206973206e6f74206f776e6572206e6f7220617070726f76656420666f7220616c6c4d6574616461746120555249206973207065726d616e656e746c792066726f7a656e4552433732313a2062616c616e636520717565727920666f7220746865207a65726f20616464726573734552433732313a206f776e657220717565727920666f72206e6f6e6578697374656e7420746f6b656e456e756d657261626c654d61703a20696e646578206f7574206f6620626f756e64734552433732313a20617070726f76656420717565727920666f72206e6f6e6578697374656e7420746f6b656e4552433732313a207472616e73666572206f6620746f6b656e2074686174206973206e6f74206f776e4552433732314d657461646174613a2055524920717565727920666f72206e6f6e6578697374656e7420746f6b656e54686572652069732061206c696d6974206f6e206d696e74696e6720746f6f206d616e7920617420612074696d65214552433732313a20617070726f76616c20746f2063757272656e74206f776e65724552433732313a207472616e736665722063616c6c6572206973206e6f74206f776e6572206e6f7220617070726f766564a26469706673582212205c7afec71b44c66fe914099af448bbb26fed5cc6edb5779817e4a7df06b377d564736f6c634300060c0033",
  "linkReferences": {},
  "deployedLinkReferences": {}
}